{
  "_format": "hh-sol-artifact-1",
  "contractName": "TokenVBZ",
  "sourceName": "contracts/TokenVBZ.sol",
  "abi": [
    {
      "inputs": [
        {
          "internalType": "string",
          "name": "_name",
          "type": "string"
        },
        {
          "internalType": "string",
          "name": "_symbol",
          "type": "string"
        },
        {
          "internalType": "uint256",
          "name": "_totalSupply",
          "type": "uint256"
        },
        {
          "internalType": "uint256",
          "name": "_decimals",
          "type": "uint256"
        }
      ],
      "stateMutability": "nonpayable",
      "type": "constructor"
    },
    {
      "anonymous": false,
      "inputs": [
        {
          "indexed": false,
          "internalType": "address",
          "name": "_owner",
          "type": "address"
        },
        {
          "indexed": false,
          "internalType": "address",
          "name": "_spender",
          "type": "address"
        },
        {
          "indexed": false,
          "internalType": "uint256",
          "name": "_amount",
          "type": "uint256"
        }
      ],
      "name": "Approval",
      "type": "event"
    },
    {
      "anonymous": false,
      "inputs": [
        {
          "indexed": false,
          "internalType": "address",
          "name": "_Sender",
          "type": "address"
        },
        {
          "indexed": false,
          "internalType": "address",
          "name": "_recpi",
          "type": "address"
        },
        {
          "indexed": false,
          "internalType": "uint256",
          "name": "_value",
          "type": "uint256"
        }
      ],
      "name": "Transfer",
      "type": "event"
    },
    {
      "inputs": [
        {
          "internalType": "address",
          "name": "owner",
          "type": "address"
        },
        {
          "internalType": "address",
          "name": "spender",
          "type": "address"
        }
      ],
      "name": "allowance",
      "outputs": [
        {
          "internalType": "uint256",
          "name": "remaining",
          "type": "uint256"
        }
      ],
      "stateMutability": "view",
      "type": "function"
    },
    {
      "inputs": [
        {
          "internalType": "address",
          "name": "spender",
          "type": "address"
        },
        {
          "internalType": "uint256",
          "name": "amount",
          "type": "uint256"
        }
      ],
      "name": "approve",
      "outputs": [
        {
          "internalType": "bool",
          "name": "succes",
          "type": "bool"
        }
      ],
      "stateMutability": "nonpayable",
      "type": "function"
    },
    {
      "inputs": [
        {
          "internalType": "address",
          "name": "",
          "type": "address"
        }
      ],
      "name": "balance",
      "outputs": [
        {
          "internalType": "uint256",
          "name": "",
          "type": "uint256"
        }
      ],
      "stateMutability": "view",
      "type": "function"
    },
    {
      "inputs": [
        {
          "internalType": "address",
          "name": "useraddress",
          "type": "address"
        }
      ],
      "name": "balanceOf",
      "outputs": [
        {
          "internalType": "uint256",
          "name": "_balance",
          "type": "uint256"
        }
      ],
      "stateMutability": "view",
      "type": "function"
    },
    {
      "inputs": [],
      "name": "decimals",
      "outputs": [
        {
          "internalType": "uint256",
          "name": "",
          "type": "uint256"
        }
      ],
      "stateMutability": "view",
      "type": "function"
    },
    {
      "inputs": [],
      "name": "name",
      "outputs": [
        {
          "internalType": "string",
          "name": "",
          "type": "string"
        }
      ],
      "stateMutability": "view",
      "type": "function"
    },
    {
      "inputs": [],
      "name": "symbol",
      "outputs": [
        {
          "internalType": "string",
          "name": "",
          "type": "string"
        }
      ],
      "stateMutability": "view",
      "type": "function"
    },
    {
      "inputs": [],
      "name": "totaLSupply",
      "outputs": [
        {
          "internalType": "uint256",
          "name": "",
          "type": "uint256"
        }
      ],
      "stateMutability": "view",
      "type": "function"
    },
    {
      "inputs": [],
      "name": "totalSupply",
      "outputs": [
        {
          "internalType": "uint256",
          "name": "",
          "type": "uint256"
        }
      ],
      "stateMutability": "view",
      "type": "function"
    },
    {
      "inputs": [
        {
          "internalType": "address",
          "name": "recipient",
          "type": "address"
        },
        {
          "internalType": "uint256",
          "name": "amount",
          "type": "uint256"
        }
      ],
      "name": "transfer",
      "outputs": [
        {
          "internalType": "bool",
          "name": "success",
          "type": "bool"
        }
      ],
      "stateMutability": "nonpayable",
      "type": "function"
    },
    {
      "inputs": [
        {
          "internalType": "address",
          "name": "sender",
          "type": "address"
        },
        {
          "internalType": "address",
          "name": "recipient",
          "type": "address"
        },
        {
          "internalType": "uint256",
          "name": "amount",
          "type": "uint256"
        }
      ],
      "name": "transferFrom",
      "outputs": [
        {
          "internalType": "bool",
          "name": "succes",
          "type": "bool"
        }
      ],
      "stateMutability": "nonpayable",
      "type": "function"
    }
  ],
  "bytecode": "0x60806040523480156200001157600080fd5b50604051620013a0380380620013a0833981810160405281019062000037919062000285565b836000908162000048919062000576565b5082600190816200005a919062000576565b50816002819055508060038190555081600460003373ffffffffffffffffffffffffffffffffffffffff1673ffffffffffffffffffffffffffffffffffffffff16815260200190815260200160002081905550505050506200065d565b6000604051905090565b600080fd5b600080fd5b600080fd5b600080fd5b6000601f19601f8301169050919050565b7f4e487b7100000000000000000000000000000000000000000000000000000000600052604160045260246000fd5b6200012082620000d5565b810181811067ffffffffffffffff82111715620001425762000141620000e6565b5b80604052505050565b600062000157620000b7565b905062000165828262000115565b919050565b600067ffffffffffffffff821115620001885762000187620000e6565b5b6200019382620000d5565b9050602081019050919050565b60005b83811015620001c0578082015181840152602081019050620001a3565b60008484015250505050565b6000620001e3620001dd846200016a565b6200014b565b905082815260208101848484011115620002025762000201620000d0565b5b6200020f848285620001a0565b509392505050565b600082601f8301126200022f576200022e620000cb565b5b815162000241848260208601620001cc565b91505092915050565b6000819050919050565b6200025f816200024a565b81146200026b57600080fd5b50565b6000815190506200027f8162000254565b92915050565b60008060008060808587031215620002a257620002a1620000c1565b5b600085015167ffffffffffffffff811115620002c357620002c2620000c6565b5b620002d18782880162000217565b945050602085015167ffffffffffffffff811115620002f557620002f4620000c6565b5b620003038782880162000217565b935050604062000316878288016200026e565b925050606062000329878288016200026e565b91505092959194509250565b600081519050919050565b7f4e487b7100000000000000000000000000000000000000000000000000000000600052602260045260246000fd5b600060028204905060018216806200038857607f821691505b6020821081036200039e576200039d62000340565b5b50919050565b60008190508160005260206000209050919050565b60006020601f8301049050919050565b600082821b905092915050565b600060088302620004087fffffffffffffffffffffffffffffffffffffffffffffffffffffffffffffffff82620003c9565b620004148683620003c9565b95508019841693508086168417925050509392505050565b6000819050919050565b600062000457620004516200044b846200024a565b6200042c565b6200024a565b9050919050565b6000819050919050565b620004738362000436565b6200048b62000482826200045e565b848454620003d6565b825550505050565b600090565b620004a262000493565b620004af81848462000468565b505050565b5b81811015620004d757620004cb60008262000498565b600181019050620004b5565b5050565b601f8211156200052657620004f081620003a4565b620004fb84620003b9565b810160208510156200050b578190505b620005236200051a85620003b9565b830182620004b4565b50505b505050565b600082821c905092915050565b60006200054b600019846008026200052b565b1980831691505092915050565b600062000566838362000538565b9150826002028217905092915050565b620005818262000335565b67ffffffffffffffff8111156200059d576200059c620000e6565b5b620005a982546200036f565b620005b6828285620004db565b600060209050601f831160018114620005ee5760008415620005d9578287015190505b620005e5858262000558565b86555062000655565b601f198416620005fe86620003a4565b60005b82811015620006285784890151825560018201915060208501945060208101905062000601565b8683101562000648578489015162000644601f89168262000538565b8355505b6001600288020188555050505b505050505050565b610d33806200066d6000396000f3fe608060405234801561001057600080fd5b50600436106100a95760003560e01c806370a082311161007157806370a082311461016857806395d89b4114610198578063a6ce25d3146101b6578063a9059cbb146101d4578063dd62ed3e14610204578063e3d670d714610234576100a9565b806306fdde03146100ae578063095ea7b3146100cc57806318160ddd146100fc57806323b872dd1461011a578063313ce5671461014a575b600080fd5b6100b6610264565b6040516100c391906109a5565b60405180910390f35b6100e660048036038101906100e19190610a60565b6102f2565b6040516100f39190610abb565b60405180910390f35b6101046103ba565b6040516101119190610ae5565b60405180910390f35b610134600480360381019061012f9190610b00565b6103c0565b6040516101419190610abb565b60405180910390f35b61015261062c565b60405161015f9190610ae5565b60405180910390f35b610182600480360381019061017d9190610b53565b610632565b60405161018f9190610ae5565b60405180910390f35b6101a061067b565b6040516101ad91906109a5565b60405180910390f35b6101be610709565b6040516101cb9190610ae5565b60405180910390f35b6101ee60048036038101906101e99190610a60565b610713565b6040516101fb9190610abb565b60405180910390f35b61021e60048036038101906102199190610b80565b610876565b60405161022b9190610ae5565b60405180910390f35b61024e60048036038101906102499190610b53565b6108fd565b60405161025b9190610ae5565b60405180910390f35b6000805461027190610bef565b80601f016020809104026020016040519081016040528092919081815260200182805461029d90610bef565b80156102ea5780601f106102bf576101008083540402835291602001916102ea565b820191906000526020600020905b8154815290600101906020018083116102cd57829003601f168201915b505050505081565b600081600560003373ffffffffffffffffffffffffffffffffffffffff1673ffffffffffffffffffffffffffffffffffffffff16815260200190815260200160002060008573ffffffffffffffffffffffffffffffffffffffff1673ffffffffffffffffffffffffffffffffffffffff168152602001908152602001600020819055507f8c5be1e5ebec7d5bd14f71427d1e84f3dd0314c0f7b2291e5b200ac8c7c3b9253384846040516103a893929190610c2f565b60405180910390a16001905092915050565b60025481565b600081600460008673ffffffffffffffffffffffffffffffffffffffff1673ffffffffffffffffffffffffffffffffffffffff1681526020019081526020016000205461040d9190610c95565b600460008673ffffffffffffffffffffffffffffffffffffffff1673ffffffffffffffffffffffffffffffffffffffff1681526020019081526020016000208190555081600460008573ffffffffffffffffffffffffffffffffffffffff1673ffffffffffffffffffffffffffffffffffffffff1681526020019081526020016000205461049b9190610cc9565b600460008573ffffffffffffffffffffffffffffffffffffffff1673ffffffffffffffffffffffffffffffffffffffff1681526020019081526020016000208190555081600560008673ffffffffffffffffffffffffffffffffffffffff1673ffffffffffffffffffffffffffffffffffffffff16815260200190815260200160002060003373ffffffffffffffffffffffffffffffffffffffff1673ffffffffffffffffffffffffffffffffffffffff168152602001908152602001600020546105669190610c95565b600560008673ffffffffffffffffffffffffffffffffffffffff1673ffffffffffffffffffffffffffffffffffffffff16815260200190815260200160002060003373ffffffffffffffffffffffffffffffffffffffff1673ffffffffffffffffffffffffffffffffffffffff168152602001908152602001600020819055507fddf252ad1be2c89b69c2b068fc378daa952ba7f163c4a11628f55a4df523b3ef84848460405161061993929190610c2f565b60405180910390a1600190509392505050565b60035481565b6000600460008373ffffffffffffffffffffffffffffffffffffffff1673ffffffffffffffffffffffffffffffffffffffff168152602001908152602001600020549050919050565b6001805461068890610bef565b80601f01602080910402602001604051908101604052809291908181526020018280546106b490610bef565b80156107015780601f106106d657610100808354040283529160200191610701565b820191906000526020600020905b8154815290600101906020018083116106e457829003601f168201915b505050505081565b6000600254905090565b600081600460003373ffffffffffffffffffffffffffffffffffffffff1673ffffffffffffffffffffffffffffffffffffffff168152602001908152602001600020546107609190610c95565b600460003373ffffffffffffffffffffffffffffffffffffffff1673ffffffffffffffffffffffffffffffffffffffff1681526020019081526020016000208190555081600460008573ffffffffffffffffffffffffffffffffffffffff1673ffffffffffffffffffffffffffffffffffffffff168152602001908152602001600020546107ee9190610cc9565b600460008573ffffffffffffffffffffffffffffffffffffffff1673ffffffffffffffffffffffffffffffffffffffff168152602001908152602001600020819055507fddf252ad1be2c89b69c2b068fc378daa952ba7f163c4a11628f55a4df523b3ef33848460405161086493929190610c2f565b60405180910390a16001905092915050565b6000600560008473ffffffffffffffffffffffffffffffffffffffff1673ffffffffffffffffffffffffffffffffffffffff16815260200190815260200160002060008373ffffffffffffffffffffffffffffffffffffffff1673ffffffffffffffffffffffffffffffffffffffff16815260200190815260200160002054905092915050565b60046020528060005260406000206000915090505481565b600081519050919050565b600082825260208201905092915050565b60005b8381101561094f578082015181840152602081019050610934565b60008484015250505050565b6000601f19601f8301169050919050565b600061097782610915565b6109818185610920565b9350610991818560208601610931565b61099a8161095b565b840191505092915050565b600060208201905081810360008301526109bf818461096c565b905092915050565b600080fd5b600073ffffffffffffffffffffffffffffffffffffffff82169050919050565b60006109f7826109cc565b9050919050565b610a07816109ec565b8114610a1257600080fd5b50565b600081359050610a24816109fe565b92915050565b6000819050919050565b610a3d81610a2a565b8114610a4857600080fd5b50565b600081359050610a5a81610a34565b92915050565b60008060408385031215610a7757610a766109c7565b5b6000610a8585828601610a15565b9250506020610a9685828601610a4b565b9150509250929050565b60008115159050919050565b610ab581610aa0565b82525050565b6000602082019050610ad06000830184610aac565b92915050565b610adf81610a2a565b82525050565b6000602082019050610afa6000830184610ad6565b92915050565b600080600060608486031215610b1957610b186109c7565b5b6000610b2786828701610a15565b9350506020610b3886828701610a15565b9250506040610b4986828701610a4b565b9150509250925092565b600060208284031215610b6957610b686109c7565b5b6000610b7784828501610a15565b91505092915050565b60008060408385031215610b9757610b966109c7565b5b6000610ba585828601610a15565b9250506020610bb685828601610a15565b9150509250929050565b7f4e487b7100000000000000000000000000000000000000000000000000000000600052602260045260246000fd5b60006002820490506001821680610c0757607f821691505b602082108103610c1a57610c19610bc0565b5b50919050565b610c29816109ec565b82525050565b6000606082019050610c446000830186610c20565b610c516020830185610c20565b610c5e6040830184610ad6565b949350505050565b7f4e487b7100000000000000000000000000000000000000000000000000000000600052601160045260246000fd5b6000610ca082610a2a565b9150610cab83610a2a565b9250828203905081811115610cc357610cc2610c66565b5b92915050565b6000610cd482610a2a565b9150610cdf83610a2a565b9250828201905080821115610cf757610cf6610c66565b5b9291505056fea2646970667358221220679335cac61a373bc7aec0a41ece4627e4c17a9b77bc20bbf7673bccfa0773f164736f6c63430008120033",
  "linkReferences": {},
  "deployedLinkReferences": {}
}